{
  "contractName": "BattleShipGame",
  "abi": [
    {
      "inputs": [],
      "stateMutability": "nonpayable",
      "type": "constructor"
    },
    {
      "inputs": [
        {
          "internalType": "string",
          "name": "myError",
          "type": "string"
        }
      ],
      "name": "OutputError",
      "type": "error"
    },
    {
      "anonymous": false,
      "inputs": [
        {
          "indexed": true,
          "internalType": "uint256",
          "name": "_gameId",
          "type": "uint256"
        },
        {
          "indexed": false,
          "internalType": "address",
          "name": "_accused",
          "type": "address"
        },
        {
          "indexed": false,
          "internalType": "address",
          "name": "_accuser",
          "type": "address"
        }
      ],
      "name": "AccusationTrigger",
      "type": "event"
    },
    {
      "anonymous": false,
      "inputs": [
        {
          "indexed": false,
          "internalType": "address",
          "name": "_sender",
          "type": "address"
        },
        {
          "indexed": false,
          "internalType": "uint256",
          "name": "_amount",
          "type": "uint256"
        },
        {
          "indexed": true,
          "internalType": "uint256",
          "name": "_gameId",
          "type": "uint256"
        },
        {
          "indexed": false,
          "internalType": "uint256",
          "name": "_response",
          "type": "uint256"
        }
      ],
      "name": "AmountEthResponse",
      "type": "event"
    },
    {
      "anonymous": false,
      "inputs": [
        {
          "indexed": true,
          "internalType": "uint256",
          "name": "_gameId",
          "type": "uint256"
        }
      ],
      "name": "GameCreated",
      "type": "event"
    },
    {
      "anonymous": false,
      "inputs": [
        {
          "indexed": true,
          "internalType": "uint256",
          "name": "_gameId",
          "type": "uint256"
        },
        {
          "indexed": false,
          "internalType": "address",
          "name": "_winner",
          "type": "address"
        },
        {
          "indexed": false,
          "internalType": "address",
          "name": "_loser",
          "type": "address"
        },
        {
          "indexed": false,
          "internalType": "uint256",
          "name": "_reason",
          "type": "uint256"
        }
      ],
      "name": "GameEnded",
      "type": "event"
    },
    {
      "anonymous": false,
      "inputs": [
        {
          "indexed": true,
          "internalType": "uint256",
          "name": "_gameId",
          "type": "uint256"
        },
        {
          "indexed": false,
          "internalType": "address",
          "name": "_creator",
          "type": "address"
        },
        {
          "indexed": false,
          "internalType": "address",
          "name": "_joiner",
          "type": "address"
        },
        {
          "indexed": false,
          "internalType": "uint256",
          "name": "_boardSize",
          "type": "uint256"
        },
        {
          "indexed": false,
          "internalType": "uint256",
          "name": "_shipNum",
          "type": "uint256"
        },
        {
          "indexed": false,
          "internalType": "uint256",
          "name": "_ethAmount",
          "type": "uint256"
        }
      ],
      "name": "GameJoined",
      "type": "event"
    },
    {
      "anonymous": false,
      "inputs": [
        {
          "indexed": true,
          "internalType": "uint256",
          "name": "_gameId",
          "type": "uint256"
        },
        {
          "indexed": false,
          "internalType": "address",
          "name": "_accuser",
          "type": "address"
        }
      ],
      "name": "ResolveAccuse",
      "type": "event"
    },
    {
      "anonymous": false,
      "inputs": [
        {
          "indexed": true,
          "internalType": "uint256",
          "name": "_gameId",
          "type": "uint256"
        },
        {
          "indexed": false,
          "internalType": "address",
          "name": "_address",
          "type": "address"
        },
        {
          "indexed": false,
          "internalType": "uint256",
          "name": "_row",
          "type": "uint256"
        },
        {
          "indexed": false,
          "internalType": "uint256",
          "name": "_col",
          "type": "uint256"
        },
        {
          "indexed": false,
          "internalType": "uint256",
          "name": "_result",
          "type": "uint256"
        },
        {
          "indexed": false,
          "internalType": "uint256",
          "name": "_shipsRemaining",
          "type": "uint256"
        }
      ],
      "name": "ShotResult",
      "type": "event"
    },
    {
      "anonymous": false,
      "inputs": [
        {
          "indexed": true,
          "internalType": "uint256",
          "name": "_gameId",
          "type": "uint256"
        },
        {
          "indexed": false,
          "internalType": "address",
          "name": "_address",
          "type": "address"
        },
        {
          "indexed": false,
          "internalType": "uint256",
          "name": "_row",
          "type": "uint256"
        },
        {
          "indexed": false,
          "internalType": "uint256",
          "name": "_col",
          "type": "uint256"
        }
      ],
      "name": "ShotShip",
      "type": "event"
    },
    {
      "inputs": [
        {
          "internalType": "uint256",
          "name": "",
          "type": "uint256"
        }
      ],
      "name": "availableGames",
      "outputs": [
        {
          "internalType": "uint256",
          "name": "",
          "type": "uint256"
        }
      ],
      "stateMutability": "view",
      "type": "function",
      "constant": true
    },
    {
      "inputs": [],
      "name": "gameId",
      "outputs": [
        {
          "internalType": "uint256",
          "name": "",
          "type": "uint256"
        }
      ],
      "stateMutability": "view",
      "type": "function",
      "constant": true
    },
    {
      "inputs": [
        {
          "internalType": "uint256",
          "name": "",
          "type": "uint256"
        }
      ],
      "name": "gameList",
      "outputs": [
        {
          "internalType": "address",
          "name": "creator",
          "type": "address"
        },
        {
          "internalType": "address",
          "name": "joiner",
          "type": "address"
        },
        {
          "internalType": "uint256",
          "name": "boardSize",
          "type": "uint256"
        },
        {
          "internalType": "uint256",
          "name": "shipNum",
          "type": "uint256"
        },
        {
          "internalType": "uint256",
          "name": "ethAmount",
          "type": "uint256"
        },
        {
          "internalType": "uint256",
          "name": "ethBetted",
          "type": "uint256"
        },
        {
          "internalType": "bytes32",
          "name": "creatorMerkleRoot",
          "type": "bytes32"
        },
        {
          "internalType": "bytes32",
          "name": "joinerMerkleRoot",
          "type": "bytes32"
        },
        {
          "internalType": "uint256",
          "name": "creatorNumShips",
          "type": "uint256"
        },
        {
          "internalType": "uint256",
          "name": "joinerNumShips",
          "type": "uint256"
        },
        {
          "internalType": "uint256",
          "name": "accusationTime",
          "type": "uint256"
        },
        {
          "internalType": "address",
          "name": "accuser",
          "type": "address"
        }
      ],
      "stateMutability": "view",
      "type": "function",
      "constant": true
    },
    {
      "inputs": [
        {
          "internalType": "uint256",
          "name": "_boardSize",
          "type": "uint256"
        },
        {
          "internalType": "uint256",
          "name": "_shipNum",
          "type": "uint256"
        },
        {
          "internalType": "uint256",
          "name": "_ethAmount",
          "type": "uint256"
        }
      ],
      "name": "createGame",
      "outputs": [],
      "stateMutability": "payable",
      "type": "function",
      "payable": true
    },
    {
      "inputs": [
        {
          "internalType": "uint256",
          "name": "_gameId",
          "type": "uint256"
        }
      ],
      "name": "joinGame",
      "outputs": [],
      "stateMutability": "nonpayable",
      "type": "function"
    },
    {
      "inputs": [
        {
          "internalType": "uint256",
          "name": "_gameId",
          "type": "uint256"
        },
        {
          "internalType": "bool",
          "name": "_response",
          "type": "bool"
        }
      ],
      "name": "amountEthDecision",
      "outputs": [],
      "stateMutability": "payable",
      "type": "function",
      "payable": true
    },
    {
      "inputs": [
        {
          "internalType": "uint256",
          "name": "_gameId",
          "type": "uint256"
        },
        {
          "internalType": "bytes32",
          "name": "_merkleRoot",
          "type": "bytes32"
        }
      ],
      "name": "submitBoard",
      "outputs": [],
      "stateMutability": "nonpayable",
      "type": "function"
    },
    {
      "inputs": [
        {
          "internalType": "uint256",
          "name": "_gameId",
          "type": "uint256"
        },
        {
          "internalType": "uint256",
          "name": "_row",
          "type": "uint256"
        },
        {
          "internalType": "uint256",
          "name": "_col",
          "type": "uint256"
        }
      ],
      "name": "shot",
      "outputs": [],
      "stateMutability": "nonpayable",
      "type": "function"
    },
    {
      "inputs": [
        {
          "internalType": "uint256",
          "name": "_gameId",
          "type": "uint256"
        },
        {
          "internalType": "uint256",
          "name": "_row",
          "type": "uint256"
        },
        {
          "internalType": "uint256",
          "name": "_col",
          "type": "uint256"
        },
        {
          "internalType": "uint256",
          "name": "_result",
          "type": "uint256"
        },
        {
          "internalType": "bytes32",
          "name": "_hash",
          "type": "bytes32"
        },
        {
          "internalType": "bytes32[]",
          "name": "_merkleProof",
          "type": "bytes32[]"
        }
      ],
      "name": "shotResult",
      "outputs": [],
      "stateMutability": "payable",
      "type": "function",
      "payable": true
    },
    {
      "inputs": [
        {
          "internalType": "uint256",
          "name": "_gameId",
          "type": "uint256"
        }
      ],
      "name": "accuseOpponent",
      "outputs": [],
      "stateMutability": "payable",
      "type": "function",
      "payable": true
    },
    {
      "inputs": [
        {
          "internalType": "uint256",
          "name": "_gameId",
          "type": "uint256"
        }
      ],
      "name": "verifyAccuse",
      "outputs": [],
      "stateMutability": "payable",
      "type": "function",
      "payable": true
    }
  ],
  "bytecode": "0x6080604052600160025534801561001557600080fd5b506133c6806100256000396000f3fe60806040526004361061009c5760003560e01c80639377b400116100645780639377b4001461013a5780639966cc8314610163578063c2741521146101a0578063c6cfd08e146101bc578063d7c81b5514610204578063efaa55a01461022f5761009c565b80630153f922146100a15780630328f6fb146100bd57806320ed1057146100e65780634f7f73f314610102578063685385f31461011e575b600080fd5b6100bb60048036038101906100b69190612476565b610258565b005b3480156100c957600080fd5b506100e460048036038101906100df91906124d9565b610650565b005b61010060048036038101906100fb9190612476565b610a4a565b005b61011c60048036038101906101179190612672565b610f0f565b005b61013860048036038101906101339190612753565b6113ef565b005b34801561014657600080fd5b50610161600480360381019061015c9190612793565b61170b565b005b34801561016f57600080fd5b5061018a60048036038101906101859190612476565b611ac9565b60405161019791906127f5565b60405180910390f35b6101ba60048036038101906101b59190612793565b611aed565b005b3480156101c857600080fd5b506101e360048036038101906101de9190612476565b611e0d565b6040516101fb9c9b9a99989796959493929190612860565b60405180910390f35b34801561021057600080fd5b50610219611ecd565b60405161022691906127f5565b60405180910390f35b34801561023b57600080fd5b5061025660048036038101906102519190612476565b611ed3565b005b60008082815260200190815260200160002060000160009054906101000a900473ffffffffffffffffffffffffffffffffffffffff1673ffffffffffffffffffffffffffffffffffffffff16600080838152602001908152602001600020600b0160009054906101000a900473ffffffffffffffffffffffffffffffffffffffff1673ffffffffffffffffffffffffffffffffffffffff160361044f5743600080838152602001908152602001600020600a01541161044a57600080828152602001908152602001600020600b0160009054906101000a900473ffffffffffffffffffffffffffffffffffffffff1673ffffffffffffffffffffffffffffffffffffffff166108fc600080848152602001908152602001600020600501549081150290604051600060405180830381858888f193505050501580156103a1573d6000803e3d6000fd5b50807f470cc86631700e08c11a6d20ecd69bb482a129f5071a1057455be0c10be26866600080848152602001908152602001600020600b0160009054906101000a900473ffffffffffffffffffffffffffffffffffffffff1660008085815260200190815260200160002060010160009054906101000a900473ffffffffffffffffffffffffffffffffffffffff1660026040516104419392919061295f565b60405180910390a25b61064c565b60008082815260200190815260200160002060010160009054906101000a900473ffffffffffffffffffffffffffffffffffffffff1673ffffffffffffffffffffffffffffffffffffffff16600080838152602001908152602001600020600b0160009054906101000a900473ffffffffffffffffffffffffffffffffffffffff1673ffffffffffffffffffffffffffffffffffffffff16036106465743600080838152602001908152602001600020600a01541161064157600080828152602001908152602001600020600b0160009054906101000a900473ffffffffffffffffffffffffffffffffffffffff1673ffffffffffffffffffffffffffffffffffffffff166108fc600080848152602001908152602001600020600501549081150290604051600060405180830381858888f19350505050158015610598573d6000803e3d6000fd5b50807f470cc86631700e08c11a6d20ecd69bb482a129f5071a1057455be0c10be26866600080848152602001908152602001600020600b0160009054906101000a900473ffffffffffffffffffffffffffffffffffffffff1660008085815260200190815260200160002060000160009054906101000a900473ffffffffffffffffffffffffffffffffffffffff1660026040516106389392919061295f565b60405180910390a25b61064b565b61064d565b5b5b50565b60008211610693576040517f9a9be8fa00000000000000000000000000000000000000000000000000000000815260040161068a906129f3565b60405180910390fd5b3373ffffffffffffffffffffffffffffffffffffffff1660008084815260200190815260200160002060000160009054906101000a900473ffffffffffffffffffffffffffffffffffffffff1673ffffffffffffffffffffffffffffffffffffffff161415801561076557503373ffffffffffffffffffffffffffffffffffffffff1660008084815260200190815260200160002060010160009054906101000a900473ffffffffffffffffffffffffffffffffffffffff1673ffffffffffffffffffffffffffffffffffffffff1614155b156107a5576040517f9a9be8fa00000000000000000000000000000000000000000000000000000000815260040161079c90612a5f565b60405180910390fd5b3373ffffffffffffffffffffffffffffffffffffffff1660008084815260200190815260200160002060000160009054906101000a900473ffffffffffffffffffffffffffffffffffffffff1673ffffffffffffffffffffffffffffffffffffffff1614801561082d57506000801b6000808481526020019081526020016000206006015414155b806108bc57503373ffffffffffffffffffffffffffffffffffffffff1660008084815260200190815260200160002060010160009054906101000a900473ffffffffffffffffffffffffffffffffffffffff1673ffffffffffffffffffffffffffffffffffffffff161480156108bb57506000801b6000808481526020019081526020016000206007015414155b5b156108fc576040517f9a9be8fa0000000000000000000000000000000000000000000000000000000081526004016108f390612acb565b60405180910390fd5b3373ffffffffffffffffffffffffffffffffffffffff1660008084815260200190815260200160002060000160009054906101000a900473ffffffffffffffffffffffffffffffffffffffff1673ffffffffffffffffffffffffffffffffffffffff1603610983578060008084815260200190815260200160002060060181905550610a46565b3373ffffffffffffffffffffffffffffffffffffffff1660008084815260200190815260200160002060010160009054906101000a900473ffffffffffffffffffffffffffffffffffffffff1673ffffffffffffffffffffffffffffffffffffffff1603610a0a578060008084815260200190815260200160002060070181905550610a45565b6040517f9a9be8fa000000000000000000000000000000000000000000000000000000008152600401610a3c90612a5f565b60405180910390fd5b5b5050565b60008111610a8d576040517f9a9be8fa000000000000000000000000000000000000000000000000000000008152600401610a84906129f3565b60405180910390fd5b3373ffffffffffffffffffffffffffffffffffffffff1660008083815260200190815260200160002060000160009054906101000a900473ffffffffffffffffffffffffffffffffffffffff1673ffffffffffffffffffffffffffffffffffffffff1614158015610b5f57503373ffffffffffffffffffffffffffffffffffffffff1660008083815260200190815260200160002060010160009054906101000a900473ffffffffffffffffffffffffffffffffffffffff1673ffffffffffffffffffffffffffffffffffffffff1614155b15610b9f576040517f9a9be8fa000000000000000000000000000000000000000000000000000000008152600401610b9690612a5f565b60405180910390fd5b600073ffffffffffffffffffffffffffffffffffffffff16600080838152602001908152602001600020600b0160009054906101000a900473ffffffffffffffffffffffffffffffffffffffff1673ffffffffffffffffffffffffffffffffffffffff1603610f0c5733600080838152602001908152602001600020600b0160006101000a81548173ffffffffffffffffffffffffffffffffffffffff021916908373ffffffffffffffffffffffffffffffffffffffff160217905550600543610c699190612b1a565b600080838152602001908152602001600020600a018190555060008082815260200190815260200160002060000160009054906101000a900473ffffffffffffffffffffffffffffffffffffffff1673ffffffffffffffffffffffffffffffffffffffff16600080838152602001908152602001600020600b0160009054906101000a900473ffffffffffffffffffffffffffffffffffffffff1673ffffffffffffffffffffffffffffffffffffffff1603610dc857807fa11145e24e3c0a8f6586af5688ff25ef2fdd2a8143412c2cbb0044c0db72803c60008084815260200190815260200160002060010160009054906101000a900473ffffffffffffffffffffffffffffffffffffffff1660008085815260200190815260200160002060000160009054906101000a900473ffffffffffffffffffffffffffffffffffffffff16604051610dbb929190612b4e565b60405180910390a2610f0b565b60008082815260200190815260200160002060010160009054906101000a900473ffffffffffffffffffffffffffffffffffffffff1673ffffffffffffffffffffffffffffffffffffffff16600080838152602001908152602001600020600b0160009054906101000a900473ffffffffffffffffffffffffffffffffffffffff1673ffffffffffffffffffffffffffffffffffffffff1603610f0a57807fa11145e24e3c0a8f6586af5688ff25ef2fdd2a8143412c2cbb0044c0db72803c60008084815260200190815260200160002060000160009054906101000a900473ffffffffffffffffffffffffffffffffffffffff1660008085815260200190815260200160002060010160009054906101000a900473ffffffffffffffffffffffffffffffffffffffff16604051610f01929190612b4e565b60405180910390a25b5b5b50565b60008060008089815260200190815260200160002060000160009054906101000a900473ffffffffffffffffffffffffffffffffffffffff1673ffffffffffffffffffffffffffffffffffffffff163373ffffffffffffffffffffffffffffffffffffffff1603610fcf5760008089815260200190815260200160002060010160009054906101000a900473ffffffffffffffffffffffffffffffffffffffff169150600080898152602001908152602001600020600601549050611020565b60008089815260200190815260200160002060000160009054906101000a900473ffffffffffffffffffffffffffffffffffffffff1691506000808981526020019081526020016000206007015490505b60008490506000876000808c8152602001908152602001600020600201548a6110499190612b77565b6110539190612b1a565b905060005b85518110156111275760006002836110709190612be8565b036110bf578286828151811061108957611088612c19565b5b60200260200101516040516020016110a2929190612c69565b604051602081830303815290604052805190602001209250611105565b8581815181106110d2576110d1612c19565b5b6020026020010151836040516020016110ec929190612c69565b6040516020818303038152906040528051906020012092505b6002826111129190612c95565b9150808061111f90612cc6565b915050611058565b50600082840361129c576000808c815260200190815260200160002060000160009054906101000a900473ffffffffffffffffffffffffffffffffffffffff1673ffffffffffffffffffffffffffffffffffffffff163373ffffffffffffffffffffffffffffffffffffffff16036111fa57600188036111dd5760016000808d8152602001908152602001600020600901546111c39190612d0e565b6000808d8152602001908152602001600020600901819055505b6000808c8152602001908152602001600020600901549050611257565b6001880361123e5760016000808d8152602001908152602001600020600801546112249190612d0e565b6000808d8152602001908152602001600020600801819055505b6000808c81526020019081526020016000206008015490505b8a7fd260c229f9fb006b4e55f793734947818cb338325a3eeeb7c3251a5f1c1ae255868c8c8c8660405161128f959493929190612d42565b60405180910390a261133f565b8a7f470cc86631700e08c11a6d20ecd69bb482a129f5071a1057455be0c10be26866863360006040516112d193929190612dd0565b60405180910390a28473ffffffffffffffffffffffffffffffffffffffff166108fc6000808e8152602001908152602001600020600501549081150290604051600060405180830381858888f19350505050158015611334573d6000803e3d6000fd5b5050505050506113e7565b600081116113e1578473ffffffffffffffffffffffffffffffffffffffff166108fc6000808e8152602001908152602001600020600501549081150290604051600060405180830381858888f193505050501580156113a2573d6000803e3d6000fd5b508a7f470cc86631700e08c11a6d20ecd69bb482a129f5071a1057455be0c10be26866863360016040516113d893929190612e42565b60405180910390a25b50505050505b505050505050565b60008211611432576040517f9a9be8fa000000000000000000000000000000000000000000000000000000008152600401611429906129f3565b60405180910390fd5b3373ffffffffffffffffffffffffffffffffffffffff1660008084815260200190815260200160002060000160009054906101000a900473ffffffffffffffffffffffffffffffffffffffff1673ffffffffffffffffffffffffffffffffffffffff161415801561150457503373ffffffffffffffffffffffffffffffffffffffff1660008084815260200190815260200160002060010160009054906101000a900473ffffffffffffffffffffffffffffffffffffffff1673ffffffffffffffffffffffffffffffffffffffff1614155b15611544576040517f9a9be8fa00000000000000000000000000000000000000000000000000000000815260040161153b90612a5f565b60405180910390fd5b8061161e57600080600084815260200190815260200160002060010160006101000a81548173ffffffffffffffffffffffffffffffffffffffff021916908373ffffffffffffffffffffffffffffffffffffffff1602179055506001829080600181540180825580915050600190039060005260206000200160009091909190915055817f4cb66ab516bedeef3035e50502f6b3b1da5140fec06e41646bf41422c60c276b3360008086815260200190815260200160002060040154600060405161161193929190612e79565b60405180910390a2611707565b60008083815260200190815260200160002060040154670de0b6b3a7640000346116489190612c95565b14611688576040517f08c379a000000000000000000000000000000000000000000000000000000000815260040161167f90612efc565b60405180910390fd5b3460008084815260200190815260200160002060050160008282546116ad9190612b1a565b92505081905550817f4cb66ab516bedeef3035e50502f6b3b1da5140fec06e41646bf41422c60c276b336000808681526020019081526020016000206004015460016040516116fe93929190612f1c565b60405180910390a25b5050565b6000831161174e576040517f9a9be8fa000000000000000000000000000000000000000000000000000000008152600401611745906129f3565b60405180910390fd5b3373ffffffffffffffffffffffffffffffffffffffff1660008085815260200190815260200160002060000160009054906101000a900473ffffffffffffffffffffffffffffffffffffffff1673ffffffffffffffffffffffffffffffffffffffff161415801561182057503373ffffffffffffffffffffffffffffffffffffffff1660008085815260200190815260200160002060010160009054906101000a900473ffffffffffffffffffffffffffffffffffffffff1673ffffffffffffffffffffffffffffffffffffffff1614155b15611860576040517f9a9be8fa00000000000000000000000000000000000000000000000000000000815260040161185790612a5f565b60405180910390fd5b600073ffffffffffffffffffffffffffffffffffffffff16600080858152602001908152602001600020600b0160009054906101000a900473ffffffffffffffffffffffffffffffffffffffff1673ffffffffffffffffffffffffffffffffffffffff16146119a757827f752f14bd3601a325e97334f39b83b533f54b17c23d3f601c9ed2cee72cd404a3600080868152602001908152602001600020600b0160009054906101000a900473ffffffffffffffffffffffffffffffffffffffff1660405161192e9190612f53565b60405180910390a26000806000858152602001908152602001600020600b0160006101000a81548173ffffffffffffffffffffffffffffffffffffffff021916908373ffffffffffffffffffffffffffffffffffffffff1602179055506000806000858152602001908152602001600020600a01819055505b600080600085815260200190815260200160002060000160009054906101000a900473ffffffffffffffffffffffffffffffffffffffff1673ffffffffffffffffffffffffffffffffffffffff163373ffffffffffffffffffffffffffffffffffffffff1603611a4e5760008085815260200190815260200160002060010160009054906101000a900473ffffffffffffffffffffffffffffffffffffffff169050611a87565b60008085815260200190815260200160002060000160009054906101000a900473ffffffffffffffffffffffffffffffffffffffff1690505b837ff201e39edbdda93a296a1844044ae16c044ad6009935126aea6c82d923efaac0828585604051611abb93929190612f6e565b60405180910390a250505050565b60018181548110611ad957600080fd5b906000526020600020016000915090505481565b600083111580611afe575060008211155b15611b3e576040517f9a9be8fa000000000000000000000000000000000000000000000000000000008152600401611b3590613017565b60405180910390fd5b80670de0b6b3a764000034611b539190612c95565b14611b93576040517f08c379a0000000000000000000000000000000000000000000000000000000008152600401611b8a90612efc565b60405180910390fd5b6000611b9d612250565b90506040518061018001604052803373ffffffffffffffffffffffffffffffffffffffff168152602001600073ffffffffffffffffffffffffffffffffffffffff168152602001858152602001848152602001838152602001600081526020016000801b81526020016000801b815260200184815260200184815260200160008152602001600073ffffffffffffffffffffffffffffffffffffffff1681525060008083815260200190815260200160002060008201518160000160006101000a81548173ffffffffffffffffffffffffffffffffffffffff021916908373ffffffffffffffffffffffffffffffffffffffff16021790555060208201518160010160006101000a81548173ffffffffffffffffffffffffffffffffffffffff021916908373ffffffffffffffffffffffffffffffffffffffff16021790555060408201518160020155606082015181600301556080820151816004015560a0820151816005015560c0820151816006015560e082015181600701556101008201518160080155610120820151816009015561014082015181600a015561016082015181600b0160006101000a81548173ffffffffffffffffffffffffffffffffffffffff021916908373ffffffffffffffffffffffffffffffffffffffff1602179055509050506001819080600181540180825580915050600190039060005260206000200160009091909190915055346000808381526020019081526020016000206005016000828254611dd39190612b1a565b92505081905550807fbd19c47e9925eb6f7be8bb1c13a841e0240aaeaf17f217e90022e9c8eb66877f60405160405180910390a250505050565b60006020528060005260406000206000915090508060000160009054906101000a900473ffffffffffffffffffffffffffffffffffffffff16908060010160009054906101000a900473ffffffffffffffffffffffffffffffffffffffff169080600201549080600301549080600401549080600501549080600601549080600701549080600801549080600901549080600a01549080600b0160009054906101000a900473ffffffffffffffffffffffffffffffffffffffff1690508c565b60025481565b600180805490501015611f1b576040517f9a9be8fa000000000000000000000000000000000000000000000000000000008152600401611f1290613083565b60405180910390fd5b6000808203611f3357611f2c61226e565b9050611f85565b8190506000611f41826122c1565b905080611f83576040517f9a9be8fa000000000000000000000000000000000000000000000000000000008152600401611f7a906130ef565b60405180910390fd5b505b60008111611fc8576040517f9a9be8fa000000000000000000000000000000000000000000000000000000008152600401611fbf9061315b565b60405180910390fd5b600073ffffffffffffffffffffffffffffffffffffffff1660008083815260200190815260200160002060010160009054906101000a900473ffffffffffffffffffffffffffffffffffffffff1673ffffffffffffffffffffffffffffffffffffffff161461206c576040517f9a9be8fa000000000000000000000000000000000000000000000000000000008152600401612063906131c7565b60405180910390fd5b3373ffffffffffffffffffffffffffffffffffffffff1660008083815260200190815260200160002060000160009054906101000a900473ffffffffffffffffffffffffffffffffffffffff1673ffffffffffffffffffffffffffffffffffffffff160361210f576040517f9a9be8fa00000000000000000000000000000000000000000000000000000000815260040161210690613259565b60405180910390fd5b3360008083815260200190815260200160002060010160006101000a81548173ffffffffffffffffffffffffffffffffffffffff021916908373ffffffffffffffffffffffffffffffffffffffff160217905550807f66bacdfb07a49afa060b23ca1e16974d1919771fff2fd57717ab8857b0673b3460008084815260200190815260200160002060000160009054906101000a900473ffffffffffffffffffffffffffffffffffffffff1660008085815260200190815260200160002060010160009054906101000a900473ffffffffffffffffffffffffffffffffffffffff16600080868152602001908152602001600020600201546000808781526020019081526020016000206003015460008088815260200190815260200160002060040154604051612244959493929190613279565b60405180910390a25050565b60006002600081548092919061226590612cc6565b91905055905090565b6000806001805490500361228557600090506122be565b60016122956001805490506123ec565b815481106122a6576122a5612c19565b5b906000526020600020015490506122bc816122c1565b505b90565b6000806000805b6001805490508110156123195784600182815481106122ea576122e9612c19565b5b9060005260206000200154036123065780925060019150612319565b808061231190612cc6565b9150506122c8565b5080158061232c57506001805490508210155b1561233b5780925050506123e7565b60008290505b600180805490506123529190612d0e565b8110156123b857600180826123679190612b1a565b8154811061237857612377612c19565b5b90600052602060002001546001828154811061239757612396612c19565b5b906000526020600020018190555080806123b090612cc6565b915050612341565b5060018054806123cb576123ca6132cc565b5b6001900381819060005260206000200160009055905580925050505b919050565b6000814233604051602001612402929190613364565b6040516020818303038152906040528051906020012060001c6124259190612be8565b9050919050565b6000604051905090565b600080fd5b600080fd5b6000819050919050565b61245381612440565b811461245e57600080fd5b50565b6000813590506124708161244a565b92915050565b60006020828403121561248c5761248b612436565b5b600061249a84828501612461565b91505092915050565b6000819050919050565b6124b6816124a3565b81146124c157600080fd5b50565b6000813590506124d3816124ad565b92915050565b600080604083850312156124f0576124ef612436565b5b60006124fe85828601612461565b925050602061250f858286016124c4565b9150509250929050565b600080fd5b6000601f19601f8301169050919050565b7f4e487b7100000000000000000000000000000000000000000000000000000000600052604160045260246000fd5b6125678261251e565b810181811067ffffffffffffffff821117156125865761258561252f565b5b80604052505050565b600061259961242c565b90506125a5828261255e565b919050565b600067ffffffffffffffff8211156125c5576125c461252f565b5b602082029050602081019050919050565b600080fd5b60006125ee6125e9846125aa565b61258f565b90508083825260208201905060208402830185811115612611576126106125d6565b5b835b8181101561263a578061262688826124c4565b845260208401935050602081019050612613565b5050509392505050565b600082601f83011261265957612658612519565b5b81356126698482602086016125db565b91505092915050565b60008060008060008060c0878903121561268f5761268e612436565b5b600061269d89828a01612461565b96505060206126ae89828a01612461565b95505060406126bf89828a01612461565b94505060606126d089828a01612461565b93505060806126e189828a016124c4565b92505060a087013567ffffffffffffffff8111156127025761270161243b565b5b61270e89828a01612644565b9150509295509295509295565b60008115159050919050565b6127308161271b565b811461273b57600080fd5b50565b60008135905061274d81612727565b92915050565b6000806040838503121561276a57612769612436565b5b600061277885828601612461565b92505060206127898582860161273e565b9150509250929050565b6000806000606084860312156127ac576127ab612436565b5b60006127ba86828701612461565b93505060206127cb86828701612461565b92505060406127dc86828701612461565b9150509250925092565b6127ef81612440565b82525050565b600060208201905061280a60008301846127e6565b92915050565b600073ffffffffffffffffffffffffffffffffffffffff82169050919050565b600061283b82612810565b9050919050565b61284b81612830565b82525050565b61285a816124a3565b82525050565b600061018082019050612876600083018f612842565b612883602083018e612842565b612890604083018d6127e6565b61289d606083018c6127e6565b6128aa608083018b6127e6565b6128b760a083018a6127e6565b6128c460c0830189612851565b6128d160e0830188612851565b6128df6101008301876127e6565b6128ed6101208301866127e6565b6128fb6101408301856127e6565b612909610160830184612842565b9d9c50505050505050505050505050565b6000819050919050565b6000819050919050565b600061294961294461293f8461291a565b612924565b612440565b9050919050565b6129598161292e565b82525050565b60006060820190506129746000830186612842565b6129816020830185612842565b61298e6040830184612950565b949350505050565b600082825260208201905092915050565b7f47616d65206964206973206e6567617469766521000000000000000000000000600082015250565b60006129dd601483612996565b91506129e8826129a7565b602082019050919050565b60006020820190508181036000830152612a0c816129d0565b9050919050565b7f506c61796572206e6f7420696e20746861742067616d65210000000000000000600082015250565b6000612a49601883612996565b9150612a5482612a13565b602082019050919050565b60006020820190508181036000830152612a7881612a3c565b9050919050565b7f426f61726420616c7265616479207375626d6974746564210000000000000000600082015250565b6000612ab5601883612996565b9150612ac082612a7f565b602082019050919050565b60006020820190508181036000830152612ae481612aa8565b9050919050565b7f4e487b7100000000000000000000000000000000000000000000000000000000600052601160045260246000fd5b6000612b2582612440565b9150612b3083612440565b9250828201905080821115612b4857612b47612aeb565b5b92915050565b6000604082019050612b636000830185612842565b612b706020830184612842565b9392505050565b6000612b8282612440565b9150612b8d83612440565b9250828202612b9b81612440565b91508282048414831517612bb257612bb1612aeb565b5b5092915050565b7f4e487b7100000000000000000000000000000000000000000000000000000000600052601260045260246000fd5b6000612bf382612440565b9150612bfe83612440565b925082612c0e57612c0d612bb9565b5b828206905092915050565b7f4e487b7100000000000000000000000000000000000000000000000000000000600052603260045260246000fd5b6000819050919050565b612c63612c5e826124a3565b612c48565b82525050565b6000612c758285612c52565b602082019150612c858284612c52565b6020820191508190509392505050565b6000612ca082612440565b9150612cab83612440565b925082612cbb57612cba612bb9565b5b828204905092915050565b6000612cd182612440565b91507fffffffffffffffffffffffffffffffffffffffffffffffffffffffffffffffff8203612d0357612d02612aeb565b5b600182019050919050565b6000612d1982612440565b9150612d2483612440565b9250828203905081811115612d3c57612d3b612aeb565b5b92915050565b600060a082019050612d576000830188612842565b612d6460208301876127e6565b612d7160408301866127e6565b612d7e60608301856127e6565b612d8b60808301846127e6565b9695505050505050565b6000819050919050565b6000612dba612db5612db084612d95565b612924565b612440565b9050919050565b612dca81612d9f565b82525050565b6000606082019050612de56000830186612842565b612df26020830185612842565b612dff6040830184612dc1565b949350505050565b6000819050919050565b6000612e2c612e27612e2284612e07565b612924565b612440565b9050919050565b612e3c81612e11565b82525050565b6000606082019050612e576000830186612842565b612e646020830185612842565b612e716040830184612e33565b949350505050565b6000606082019050612e8e6000830186612842565b612e9b60208301856127e6565b612ea86040830184612dc1565b949350505050565b7f45544820616d6f756e74206172652077726f6e67210000000000000000000000600082015250565b6000612ee6601583612996565b9150612ef182612eb0565b602082019050919050565b60006020820190508181036000830152612f1581612ed9565b9050919050565b6000606082019050612f316000830186612842565b612f3e60208301856127e6565b612f4b6040830184612e33565b949350505050565b6000602082019050612f686000830184612842565b92915050565b6000606082019050612f836000830186612842565b612f9060208301856127e6565b612f9d60408301846127e6565b949350505050565b7f496e76616c696420626f6172642073697a65206f722073686970206e756d626560008201527f7221000000000000000000000000000000000000000000000000000000000000602082015250565b6000613001602283612996565b915061300c82612fa5565b604082019050919050565b6000602082019050818103600083015261303081612ff4565b9050919050565b7f4e6f206f70656e2067616d657321000000000000000000000000000000000000600082015250565b600061306d600e83612996565b915061307882613037565b602082019050919050565b6000602082019050818103600083015261309c81613060565b9050919050565b7f546869732067616d6520646f6573206e6f742065786973742100000000000000600082015250565b60006130d9601983612996565b91506130e4826130a3565b602082019050919050565b60006020820190508181036000830152613108816130cc565b9050919050565b7f43686f73656e206964206e656761746976652100000000000000000000000000600082015250565b6000613145601383612996565b91506131508261310f565b602082019050919050565b6000602082019050818103600083015261317481613138565b9050919050565b7f47616d6520616c72656164792074616b656e2100000000000000000000000000600082015250565b60006131b1601383612996565b91506131bc8261317b565b602082019050919050565b600060208201905081810360008301526131e0816131a4565b9050919050565b7f596f752063616e2774206a6f696e20612067616d65206372656174656420627960008201527f20796f757273656c662100000000000000000000000000000000000000000000602082015250565b6000613243602a83612996565b915061324e826131e7565b604082019050919050565b6000602082019050818103600083015261327281613236565b9050919050565b600060a08201905061328e6000830188612842565b61329b6020830187612842565b6132a860408301866127e6565b6132b560608301856127e6565b6132c260808301846127e6565b9695505050505050565b7f4e487b7100000000000000000000000000000000000000000000000000000000600052603160045260246000fd5b6000819050919050565b61331661331182612440565b6132fb565b82525050565b60008160601b9050919050565b60006133348261331c565b9050919050565b600061334682613329565b9050919050565b61335e61335982612830565b61333b565b82525050565b60006133708285613305565b602082019150613380828461334d565b601482019150819050939250505056fea2646970667358221220c33a9c4b5525f3cf9e3f2a396f36532ca5c440311a1169f3967577a76fd5c49164736f6c63430008130033",
  "immutableReferences": {},
  "source": "// SPDX-License-Identifier: MIT\npragma solidity >=0.4.22 <0.9.0;\n\n// FRANCESCO BENOCCI 24/07/2023\ncontract BattleShipGame {\n    struct gameInfo {\n        // struct with all the information about a game\n        address creator;\n        address joiner;\n        uint256 boardSize;\n        uint256 shipNum;\n        uint256 ethAmount;\n        uint256 ethBetted;\n        bytes32 creatorMerkleRoot;\n        bytes32 joinerMerkleRoot;\n        uint256 creatorNumShips;\n        uint256 joinerNumShips;\n        uint256 accusationTime;\n        address accuser;\n    }\n\n    mapping(uint256 => gameInfo) public gameList; // map of game's ID (gameId => information of that game)\n    uint256[] public availableGames; // array with all the gameId of the avaible game\n\n    uint256 public gameId = 1; // value of the next gameId\n\n    // error event:\n    error OutputError(string myError);\n\n    // event:\n    event GameCreated(uint256 indexed _gameId);\n\n    event GameJoined(\n        uint256 indexed _gameId,\n        address _creator,\n        address _joiner,\n        uint256 _boardSize,\n        uint256 _shipNum,\n        uint256 _ethAmount\n    );\n\n    event AmountEthResponse(\n        address _sender,\n        uint256 _amount,\n        uint256 indexed _gameId,\n        uint256 _response\n    );\n\n    event ShotShip(\n        uint256 indexed _gameId,\n        address _address,\n        uint256 _row,\n        uint256 _col\n    );\n\n    event ShotResult(\n        uint256 indexed _gameId,\n        address _address,\n        uint256 _row,\n        uint256 _col,\n        uint256 _result,\n        uint256 _shipsRemaining\n    );\n\n    event AccusationTrigger(\n        uint256 indexed _gameId,\n        address _accused,\n        address _accuser\n    );\n\n    event GameEnded(\n        uint256 indexed _gameId,\n        address _winner,\n        address _loser,\n        uint256 _reason\n    );\n\n    event ResolveAccuse(\n        uint256 indexed _gameId,\n        address _accuser\n    );\n\n    constructor() {}\n\n    // function to return the gameId\n    function getId() private returns (uint256 toReturn) {\n        toReturn = gameId++;\n        return toReturn;\n    }\n\n    // function to remove an element of the array availableGames\n    function removeFromArray(uint256 _gameId) private returns (bool) {\n        uint256 index;\n        bool find = false;\n\n        // loop through the avaible game until find the index of the chosen one\n        for (uint i = 0; i < availableGames.length; i++) {\n            if (availableGames[i] == _gameId) {\n                index = i;\n                find = true;\n                break;\n            }\n        }\n\n        if (!find || index >= availableGames.length) {\n            return find;\n        }\n\n        for (uint i = index; i < availableGames.length - 1; i++) {\n            // move manually all the element\n            availableGames[i] = availableGames[i + 1];\n        }\n        \n        availableGames.pop(); // remove the last element\n        \n        return find;\n    }\n\n    function getRandomNumber(uint256 bound) private view returns (uint256) {\n        return\n            uint256(keccak256(abi.encodePacked(block.timestamp, msg.sender))) %\n            bound;\n    }\n\n    // function to get the gameId of an avaible game\n    function randomGame() private returns (uint256 randGameId) {\n        if (availableGames.length == 0) {\n            return 0;\n        }\n\n        randGameId = availableGames[getRandomNumber(availableGames.length)];\n        removeFromArray(randGameId);\n        return randGameId;\n    }\n\n    // GAS EVALUATION:\n    //  with boardSize=4, shipNum=3, ethAmount=2:\n    //    - Gas used: 222881\n    //    - Total Price: 0.00033432 ETH\n    //\n    function createGame(\n        // function to create a new game\n        uint256 _boardSize,\n        uint256 _shipNum,\n        uint256 _ethAmount\n    ) public payable {\n        // create a new game\n\n        // Check if the board size and ship number are valid\n        if (_boardSize <= 0 || _shipNum <= 0) {\n            revert OutputError(\"Invalid board size or ship number!\");\n        }\n\n        require(msg.value/1000000000000000000 == _ethAmount, \"ETH amount are wrong!\");\n\n        uint256 newGameId = getId();\n\n        gameList[newGameId] = gameInfo(\n            msg.sender,\n            address(0),\n            _boardSize,\n            _shipNum,\n            _ethAmount,\n            0,\n            0,\n            0,\n            _shipNum,\n            _shipNum,\n            0,\n            address(0)\n        );\n        availableGames.push(newGameId);\n\n        gameList[newGameId].ethBetted += msg.value;\n\n        emit GameCreated(newGameId);\n    }\n\n    // GAS EVALUATION:\n    //  - specificGame:\n    //    - Gas used: 68143\n    //    - Total Price: 0.00010221 ETH\n    //\n    //  - randomGame:\n    //    - Gas used: 61738\n    //    - Total Price: 0.00009261 ETH \n    function joinGame(uint256 _gameId) public {\n        // function to join a game\n        // check if there are avaible game\n        if (availableGames.length < 1) {\n            revert OutputError(\"No open games!\");\n        }\n\n        uint256 chosenGameId;\n\n        if (_gameId == 0) {\n            //random game choice\n            chosenGameId = randomGame();\n        } else {\n            //specific game\n            chosenGameId = _gameId;\n            bool find = removeFromArray(chosenGameId);\n\n            if (!find) {\n                revert OutputError(\"This game does not exist!\");\n            }\n        }\n\n        if (chosenGameId <= 0) {\n            revert OutputError(\"Chosen id negative!\");\n        }\n\n        if (gameList[chosenGameId].joiner != address(0)) {\n            revert OutputError(\"Game already taken!\");\n        }\n\n        if (gameList[chosenGameId].creator == msg.sender) {\n            revert OutputError(\"You can't join a game created by yourself!\");\n        }\n\n        gameList[chosenGameId].joiner = msg.sender;\n\n        emit GameJoined(\n            chosenGameId,\n            gameList[chosenGameId].creator,\n            gameList[chosenGameId].joiner,\n            gameList[chosenGameId].boardSize,\n            gameList[chosenGameId].shipNum,\n            gameList[chosenGameId].ethAmount\n        );\n    }\n\n    // GAS EVALUATION:\n    //  - positive response:\n    //    - Gas used: 36545\n    //    - Total Price: 0.00005482 ETH\n    //\n    function amountEthDecision(uint256 _gameId, bool _response) public payable {\n        // function to accept or refuse the eth amount\n\n        // Check if the game ID is valid\n        if (_gameId <= 0) {\n            revert OutputError(\"Game id is negative!\");\n        }\n\n        // Check if the sender is either the creator or the joiner of the game\n        if (\n            gameList[_gameId].creator != msg.sender &&\n            gameList[_gameId].joiner != msg.sender\n        ) {\n            revert OutputError(\"Player not in that game!\");\n        }\n\n        if (!_response) {\n            // refuse response\n            gameList[_gameId].joiner = address(0);\n            availableGames.push(_gameId);\n\n            emit AmountEthResponse(\n            msg.sender,\n            gameList[_gameId].ethAmount,\n            _gameId,\n            0 // _response\n        );\n        } else {\n            // accept response\n            require(\n                msg.value/1000000000000000000 == gameList[_gameId].ethAmount,\n                \"ETH amount are wrong!\"\n            );\n\n            gameList[_gameId].ethBetted += msg.value;\n\n            emit AmountEthResponse(\n            msg.sender,\n            gameList[_gameId].ethAmount,\n            _gameId,\n            1 // _response\n        );\n        }\n    }\n\n    // GAS EVALUATION:\n    //    - Gas used: 49767 - 50255\n    //    - Total Price: 0.00007465 - 0.00007538 ETH\n    //\n    function submitBoard(uint256 _gameId, bytes32 _merkleRoot) public {\n        // function to submit the board\n\n        // Check if the game ID is valid\n        if (_gameId <= 0) {\n            revert OutputError(\"Game id is negative!\");\n        }\n\n        // Check if the sender is either the creator or the joiner of the game\n        if (\n            gameList[_gameId].creator != msg.sender &&\n            gameList[_gameId].joiner != msg.sender\n        ) {\n            revert OutputError(\"Player not in that game!\");\n        }\n\n        // Check if the board is not already submitted\n        if (\n            (gameList[_gameId].creator == msg.sender &&\n                gameList[_gameId].creatorMerkleRoot != 0) ||\n            (gameList[_gameId].joiner == msg.sender &&\n                gameList[_gameId].joinerMerkleRoot != 0)\n        ) {\n            revert OutputError(\"Board already submitted!\");\n        }\n\n        if (gameList[_gameId].creator == msg.sender) {\n            gameList[_gameId].creatorMerkleRoot = _merkleRoot;\n        } else if (gameList[_gameId].joiner == msg.sender) {\n            gameList[_gameId].joinerMerkleRoot = _merkleRoot;\n        } else {\n            revert OutputError(\"Player not in that game!\");\n        }\n    }\n\n    // GAS EVALUATION:\n    //    - Gas used: 31670\n    //    - Total Price: 0.0000475 ETH\n    //\n    function shot(uint256 _gameId, uint256 _row, uint256 _col) public {\n        // function to communicate the coordinates of the fired cell\n\n        // Check if the game ID is valid\n        if (_gameId <= 0) {\n            revert OutputError(\"Game id is negative!\");\n        }\n\n        // Check if the sender is either the creator or the joiner of the game\n        if (\n            gameList[_gameId].creator != msg.sender &&\n            gameList[_gameId].joiner != msg.sender\n        ) {\n            revert OutputError(\"Player not in that game!\");\n        }\n\n        // if ther was accusationTirgger active -> now there is a move (shot)  \n        if(gameList[_gameId].accuser != address(0)){\n            emit ResolveAccuse(_gameId, gameList[_gameId].accuser);\n            gameList[_gameId].accuser = address(0);  // set accuser = 0\n            gameList[_gameId].accusationTime = 0;\n        }\n        \n        // take the opponent address for comunicate who was shot\n        address opponentAddress;\n        if (msg.sender == gameList[_gameId].creator) {\n            opponentAddress = gameList[_gameId].joiner;\n        } else {\n            opponentAddress = gameList[_gameId].creator;\n        }\n\n        emit ShotShip(_gameId, opponentAddress, _row, _col);\n    }\n\n    // GAS EVALUATION:\n    //    - Gas used: 47020\n    //    - Total Price: 0.00007053 ETH\n    //\n    function shotResult( // function to comunicate the result of the shot\n        uint256 _gameId,\n        uint256 _row,\n        uint256 _col,\n        uint256 _result,\n        bytes32 _hash,\n        bytes32[] memory _merkleProof\n    ) public payable {\n\n        // take the opponent address for comunicate who fired the shot\n        address opponentAddress;\n        bytes32 merkleRoot;\n        if (msg.sender == gameList[_gameId].creator) {\n            opponentAddress = gameList[_gameId].joiner;\n            merkleRoot = gameList[_gameId].creatorMerkleRoot;\n        } else {\n            opponentAddress = gameList[_gameId].creator;\n            merkleRoot = gameList[_gameId].joinerMerkleRoot;\n        }\n\n        bytes32 hashValue = _hash;\n\n    // select the correct node (siblings of the node to verify) to reconstruct MerkleTree back\n        uint256 index = _row * gameList[_gameId].boardSize + _col;\n        for (uint i = 0; i < _merkleProof.length; i++) {\n            if (index % 2 == 0) { // if index is odd -> markleProof[i] is on the right from Node\n                hashValue = keccak256(\n                    abi.encodePacked(hashValue, _merkleProof[i])\n                );\n            } else {\n                hashValue = keccak256( // if index is even -> markleProof[i] is on the left from Node\n                    abi.encodePacked(_merkleProof[i], hashValue)\n                );\n            }\n\n            index = index / 2;\n        }\n\n        uint256 shipsRemaining;\n        if (merkleRoot == hashValue) {\n            // validated shot\n            if (msg.sender == gameList[_gameId].creator) {\n                if (_result == 1) {\n                    gameList[_gameId].joinerNumShips =\n                        gameList[_gameId].joinerNumShips - 1;\n                }\n                shipsRemaining = gameList[_gameId].joinerNumShips;\n            } else {\n                if (_result == 1) {\n                    gameList[_gameId].creatorNumShips =\n                        gameList[_gameId].creatorNumShips - 1;\n                }\n                shipsRemaining = gameList[_gameId].creatorNumShips;\n            }\n\n            emit ShotResult(\n                _gameId,\n                opponentAddress,\n                _row,\n                _col,\n                _result,\n                shipsRemaining\n            );\n        } else {\n            // invalidated shot\n            emit GameEnded(_gameId, opponentAddress, msg.sender, 0);\n            payable(opponentAddress).transfer(gameList[_gameId].ethBetted);\n            return;\n        }\n\n        if (shipsRemaining <= 0) {\n            payable(opponentAddress).transfer(gameList[_gameId].ethBetted);\n            // validated shot\n            emit GameEnded(_gameId, opponentAddress, msg.sender, 1);\n        }\n    }\n\n    // GAS EVALUATION:\n    //    - Gas used: 73799\n    //    - Total Price: 0.0001107 ETH\n    //\n    function accuseOpponent(uint256 _gameId) public payable {\n        // function to accuse the opponent of having left\n\n        // Check if the game ID is valid\n        if (_gameId <= 0) {\n            revert OutputError(\"Game id is negative!\");\n        }\n\n        // Check if the sender is either the creator or the joiner of the game\n        if (\n            gameList[_gameId].creator != msg.sender &&\n            gameList[_gameId].joiner != msg.sender\n        ) {\n            revert OutputError(\"Player not in that game!\");\n        }\n\n        if (gameList[_gameId].accuser == address(0)) { // if there isn't an accuser\n            // set the accuser and the accusationTime:\n            gameList[_gameId].accuser = msg.sender;\n            gameList[_gameId].accusationTime = block.number + 5;\n\n            // send the event of the accusation\n            if (gameList[_gameId].accuser == gameList[_gameId].creator) {\n                emit AccusationTrigger(\n                    _gameId,\n                    gameList[_gameId].joiner,\n                    gameList[_gameId].creator\n                );\n            } else if (gameList[_gameId].accuser == gameList[_gameId].joiner) {\n                emit AccusationTrigger(\n                    _gameId,\n                    gameList[_gameId].creator,\n                    gameList[_gameId].joiner\n                );\n            }\n        }\n    }\n\n    // GAS EVALUATION:\n    //    - Gas used: 28303\n    //    - Total Price: 0.00004245 ETH\n    //\n    function verifyAccuse(uint256 _gameId) public payable {\n        // function that verifies that the accusation time has elapsed\n\n        if (gameList[_gameId].accuser == gameList[_gameId].creator) { // if the creatore was the accuser\n\n            if (gameList[_gameId].accusationTime <= block.number) { // if the time has passed the games end\n                payable(gameList[_gameId].accuser).transfer(\n                    gameList[_gameId].ethBetted\n                );\n\n                emit GameEnded(\n                    _gameId,\n                    gameList[_gameId].accuser,\n                    gameList[_gameId].joiner,\n                    2\n                );\n            }\n        } else if (gameList[_gameId].accuser == gameList[_gameId].joiner) { // if the joiner was the accuser\n            \n            if (gameList[_gameId].accusationTime <= block.number) { // if the time has passed the games end\n                payable(gameList[_gameId].accuser).transfer(\n                    gameList[_gameId].ethBetted\n                );\n\n                emit GameEnded(\n                    _gameId,\n                    gameList[_gameId].accuser,\n                    gameList[_gameId].creator,\n                    2\n                );\n            }\n        } else {\n            return;\n        }\n    }\n}\n",
  "sourcePath": "C:\\Users\\rizar\\Documents\\6th semester\\P2P and blockchain\\lab\\RizaFran\\RizaFran_Project\\contracts\\BattleShipGame.sol",
  "compiler": {
    "name": "solc",
    "version": "0.8.19+commit.7dd6d404.Emscripten.clang"
  },
  "schemaVersion": "3.4.13",
  "updatedAt": "2023-08-29T17:57:43.769Z",
  "networkType": "ethereum",
  "devdoc": {
    "kind": "dev",
    "methods": {},
    "version": 1
  },
  "userdoc": {
    "kind": "user",
    "methods": {},
    "version": 1
  }
}